:020000040800F2
:10000000380D002049020008C71A00089D18000892
:10001000C31A0008F9140008BB2C000800000000F7
:1000200000000000000000000000000001270008A0
:100030003716000800000000892100083128000858
:1000400063020008630200086302000863020008FC
:1000500063020008630200086302000863020008EC
:1000600063020008630200086302000863020008DC
:1000700063020008630200086302000863020008CC
:1000800063020008630200086302000863020008BC
:1000900063020008630200086302000863020008AC
:1000A000630200086302000863020008630200089C
:1000B000630200089D28000863020008630200082C
:1000C000630200086302000863020008630200087C
:1000D000630200086302000863020008630200086C
:1000E000630200086302000863020008630200085C
:1000F000630200086302000863020008630200084C
:10010000630200086302000863020008630200083B
:10011000092A00087D2A000863020008630200081B
:10012000630200086302000863020008630200081B
:10013000630200086302000863020008630200080B
:1001400063020008630200086302000863020008FB
:1001500063020008630200086302000863020008EB
:1001600063020008630200086302000863020008DB
:1001700063020008630200086302000863020008CB
:10018000630200086302000800F002F800F04CF877
:100190000AA090E8000C82448344AAF10107DA45E2
:1001A00001D100F041F8AFF2090EBAE80F0013F0E8
:1001B000010F18BFFB1A43F001031847A0530000BA
:1001C000C0530000103A24BF78C878C1FAD852074B
:1001D00024BF30C830C144BF04680C6070470000C1
:1001E0000023002400250026103A28BF78C1FBD840
:1001F000520728BF30C148BF0B607047662903F023
:10020000D384642900F0A480002070471FB503F058
:10021000C6FC00F039FC04000020002103F032FC91
:10022000E0601FBD10B510BD00F02AFD1146FFF7BC
:10023000EDFF03F03DF800F048FD03B4FFF7F2FFD7
:1002400003BC02F05BFD00000948804709480047F5
:10025000FEE7FEE7FEE7FEE7FEE7FEE7FEE7FEE776
:10026000FEE7FEE704480549054A064B70470000D3
:10027000352800088901000838070020380D0020C3
:1002800038090020380900207047B2F120030AD550
:10029000C2F1200301FA02F120FA03F300FA02F09E
:1002A00041EA0301704700FA03F14FF00000704784
:1002B000B2F120030AD5C2F1200320FA02F001FABC
:1002C00003F321FA02F140EA0300704721FA03F038
:1002D0004FF00001704700000FB41CB5074B06AA91
:1002E0007B4469460090059800F0B5FB0020694604
:1002F00000F0C4FB1CBC5DF814FB00009907000073
:1003000070B5044685690068C10601D5302600E055
:100310002026C00707D070BDD4E9012130469047A0
:10032000206A401C20626D1EF6D570BD70B5044673
:1003300085690078C00707D170BDD4E9012120206C
:100340009047206A401C20626D1EF6D570BD0000EB
:100350002DE9F0410646002410687529314616A59E
:1003600010D0AFF30080002802DA404213A507E066
:1003700031688A0701D512A502E0490704D511A505
:10038000012401E0AFF3008000210A2206F12407D6
:1003900009E0B0FBF2FCB0FBF2F302FB1C003030D2
:1003A00078541846491C0028F3D123462A46304683
:1003B000BDE8F04100F0E4B8000000002D000000AE
:1003C0002B000000200000002DE9F0474FF0000A4C
:1003D00089460446C0F820A02046E16888470028E6
:1003E00076D0252806D0D4E901219047206A401C08
:1003F0002062F1E7E168204600258847C4F81CA088
:1004000006460027C4F818A02A2E09D0304602F06C
:100410006EFC38B304EB8708303EC8F8186019E06A
:1004200059F8041B204604EB87029161E168884774
:10043000012F064618D1E069002820DA25F02005B2
:100440001DE0D8F8180000EB800006EB40003038C3
:10045000C8F818002046E1688847064602F047FCC5
:100460000028EED1012F0AD02E2E08D12046E168B7
:1004700088477F1C0646022F45F02005C4DBA06993
:10048000002803DA404245F00105A061E80701D0E9
:1004900025F01005B6B1A6F14100192802D8203682
:1004A00045F400654A463146204625604D46FFF733
:1004B000A5FE58B1012806D0ED1D25F0070000F17A
:1004C000080989E704E005F1040985E730468AE771
:1004D000206ABDE8F08710B5431C02E010F8011B4C
:1004E00071B18107FAD14FF0013202C88C1A8C43E6
:1004F00014EAC211F9D0C01A0A0603D0C01E10BDFA
:10050000C01A10BD0A0401D0801E10BD0902FCD023
:10051000401E10BD10B5203AC0F00B80B1E8185055
:10052000203AA0E81850B1E81850A0E81850BFF4DD
:10053000F5AF5FEA027C24BFB1E81850A0E818507C
:1005400044BF18C918C0BDE810405FEA827C24BFD0
:1005500051F8043B40F8043B08BF7047D20728BF5E
:1005600031F8023B48BF11F8012B28BF20F8023BAD
:1005700048BF00F8012B70477047704770477047BD
:100580002DE9F0470D4699469246044600F12408AD
:100590000168880604D5E06921F01001216000E0BF
:1005A0000120A84201DD471B00E00027A1697A195C
:1005B00002EB0900081AA0612078C00602D4204688
:1005C000FFF79EFE002608E0D4E901211AF8060094
:1005D0009047206A401C761C20624E45F4DB207850
:1005E000C0060AD52046FFF78BFE06E0D4E90121BC
:1005F00030209047206A401C2062381EA7F1010776
:10060000F4DC07E0D4E9012118F805009047206ADE
:10061000401C2062281EA5F10105F3DC2046FFF7EF
:1006200085FE2078000602D50220BDE8F087012073
:10063000FBE770472DE9FF4F0C461E464FF0FF3792
:100640008BB0D2E90001DDF860800A908A46C1F3E0
:100650000A5505B93D46002108464FF00000BAF1A1
:10066000000F00F4400005DA00EB80004FF4400179
:1006700001EA50004FEA9059B9F1010F00DDB94687
:100680000A9850EA4A000ED044F61050A5F2FF3501
:1006900045432F14B8F1000F1ED07542291E1EDDF0
:1006A000C9F100021CE0B8F1010F4FF0000001D0C9
:1006B000302103E0F24305E02154401CB042FBDB53
:1006C00030460022002121540B99C1F80880C1E96D
:1006D00000200FB0BDE8F08FBD1B6D1CDEE74A4661
:1006E00000DA694206A800F059FA06AB93E8070061
:1006F00003AB83E8070050460A9900F02FFB8DE812
:100700000700A0F500501F3800900398002D09DD68
:1007100042F21F014A46084403A90390684600F0CC
:100720008EFD08E0A0F500504A461F3803A903904B
:10073000684600F098FD8DE807000004000C03D027
:100740004FF0FF30410800E01046B8F1000F03D031
:100750000022009215461EE0751E05D400F098F99F
:10076000303262556D1EF9D5B3460122084302D0DE
:1007700000227F1C04E02078302801D100227F1E57
:10078000002A099786D01DE0112D07DA00F080F9C4
:10079000303262556D1C50EA0102F5D1084302D097
:1007A0000098C8B10EE00021681E05E0235C625C81
:1007B00063542254401E491C8142F7DBAB46A81B00
:1007C000401E0990002004F80B000B98099AC0F80D
:1007D0000880C0E9002B7CE711264FF0000859E79C
:1007E0002DE9F04F88460446D21D22F0070191B052
:1007F000D1E90001CDE90A0102F061FA02460B9845
:10080000C00F01D02D2007E02068810701D52B20E3
:1008100002E0202101EAC000032A099001D0072A42
:1008200005DB03464146204600F078F90BE12078CD
:10083000800601D5E06900E00620B8F1650F814629
:1008400006D0B8F1660F18D0B8F1670F70D131E05B
:100850000020B9F1110F009001DB112301E009F133
:1008600001030AAA01A90CA8FFF7E4FEDDE90C7058
:10087000002609F10105834647E001204B46009020
:100880004FF000470AAA01A90CA8FFF7D3FEDDE943
:100890000DB00C995D46002610B909F101000D1844
:1008A000B9EB050003D4C0F1FF3609F10105A5EB52
:1008B00009002BE0B9F1010F01DA4FF00109002026
:1008C000B9F1110F0090484601DD112300E0034605
:1008D0000AAA01A90CA8FFF7ADFEDDE90C704D4690
:1008E00000268346207800070AD4AB4500DA5D462F
:1008F00001A8012D04DD411911F8011C302907D090
:100900004F4502DA17F1040F04DA012082460FE0A6
:100910006D1EEEE7002F02DCED1B3E4403E0781C69
:10092000A84200DD7D1CB81B00F1010A4FF0004712
:100930002078000703D4AA4501DB4FF0FF3A0021DD
:10094000B7F1004F0DF143088DF8431024D0022079
:100950002B23002F01DA7F422D230A21021EA0F152
:10096000010000DC5FB197FBF1FC97FBF1F201FBAA
:100970001C7C17460CF1300C08F801CDEEE7A8F10D
:10098000010003702188090501D5452100E065219A
:10099000A0F1010800F8011C09980FA9A1EB0807B4
:1009A000FF1D00B10120411901EBEA70A169384433
:1009B000081A401EA0612078C00602D42046FFF726
:1009C0009FFC099828B1D4E901219047206A401C76
:1009D00020622078C00622D52046FFF791FC1EE059
:1009E000002E04DBB34502DD01A8805D00E030206D
:1009F000D4E901219047206A401C2062761CAAF1AC
:100A000001005FEA000A0AD100F03EF8C068016800
:100A1000405CD4E901219047206A401C2062281ED6
:100A2000A5F10105DCDC07E0D4E9012118F8010B90
:100A30009047206A401C2062381EA7F10107F3DCB2
:100A40002046FFF773FC032011B043E601694A1CFE
:100A500002610878704700B58FB0CDE901310021FF
:100A6000059105497944CDE9031011466846FFF721
:100A7000ABFC0FB000BD0000E5FFFFFF0A6802F805
:100A8000010B0A607047000000487047F80600201C
:100A900030B5B0F10A024FEA900E71F100034EEA50
:100AA000817EB0EB0E0061EB91014FEA101E4EEA21
:100AB000017E10EB0E0041EB11114FEA102E4EEAB1
:100AC000016E10EB0E0041EB11214FEA104E4EEA81
:100AD000014E10EB0E0041EB1141401841F10001B5
:100AE0004FEAD00040EA41704FEAD10110EB800597
:100AF0004FEA810444EA907444EB01046D1944EB1D
:100B00000404521BA3414FF0000348BF0A3200D532
:100B100030BD401C41F1000130BD00002DE9F04125
:100B20001F46044603260168072A01F4006004DB1F
:100B300008B116A505E016A503E008B115A500E06B
:100B400015A521F010002060A069C01EA0610FB1A2
:100B5000401EA0612046FFF7D3FB4FB1D4E901212D
:100B600038469047206A401C2062C01C206206E084
:100B7000206AFAE7D4E9012115F8010B9047761EA7
:100B8000F8D22046FFF7D2FBBDE8F0814E414E007F
:100B90006E616E00494E4600696E66002DE9F047B1
:100BA000814616468AB0334878440DC88DE80D005A
:100BB00030487844801C03AC0DC884E80D0041F631
:100BC0009B300844372190FBF1F290FBF1F5A5F141
:100BD000800501FB12041B3C02D56442012000E0A9
:100BE0000020DFF890A080460027FA44AAF1BE0A50
:100BF0000DE0E00709D03246684607EB47010AEBF3
:100C0000810100F030FB8DE8070064107F1C002C90
:100C1000EFD1184F7F44AC3F18E0E80714D007EB42
:100C200004100DF1180A90E80E008AE80E00C06862
:100C3000F04201D198190890324606A903A800F0A5
:100C400012FB03AB83E807006D10641C002DE4D198
:100C500032466946B8F1000F03A802D000F0EFFA5F
:100C600001E000F000FBC9E90001C9F808200AB062
:100C7000BDE8F0873C48000000487047D8060020D7
:100C80007546FFF7F9FFAE4605006946534620F06A
:100C90000700854618B020B5FFF7E4FABDE820400C
:100CA0004FF000064FF000074FF000084FF0000B28
:100CB00021F00701AC46ACE8C009ACE8C009ACE8DB
:100CC000C009ACE8C0098D46704710B50446AFF3C3
:100CD00000802046BDE81040FFF7AFBA4FF0013C5E
:100CE00050F8042B51F8043B9A4221D1A2EB0C039B
:100CF000934313EACC1317D150F8042B51F8043B5B
:100D00009A4215D1A2EB0C03934313EACC130BD1F7
:100D100050F8042B51F8043B9A4209D1A2EB0C0382
:100D2000934313EACC13DBD04FF00000704700BFB1
:100D3000D01A01BAB1FA81F101F0180122FA01F0DA
:100D4000CB40C1F12001DBB2C0B2C01A2CFA01F3D2
:100D5000D11A914311EAC311E6D170475FEA400C02
:100D600008BF91F0000F4FEA8C234FEAC12243EAFB
:100D700051514FEA1C5018BF00F5F0404FEA3000C7
:100D800018BF41F000415FEA6C5C00F02980BCF1C3
:100D9000FF3F08BF40F080407047130C06BF1204AD
:100DA0004FF0100C4FF0000C130E04BF12020CF1A8
:100DB000080C130F04BF12010CF1040C930F04BFB5
:100DC00092000CF1020CD30F04BF52000CF1010C85
:100DD00011464FF00002A0F11F00A0EB0C0070477D
:100DE00011F0004F08BF704731F000413FF4D5AF1C
:100DF0000B0C06BF09044FF0100C4FF0000C0B0E4B
:100E000004BF09020CF1080C0B0F04BF09010CF11F
:100E1000040C8B0F04BF89000CF1020CCB0F04BF34
:100E200049000CF1010CCCF12003A0EB0C0022FADC
:100E300003F302FA0CF241EA030100F101007047EA
:100E400020F07F4C80EA030023F07F47ACEB0703E0
:100E500003F57C5300F0004003F1FF032DE98049C6
:100E60004FEA154B09B44FEA144325EA0B4E24EA26
:100E700003480FF2042606EB132749083E785FEA81
:100E8000320203FB0667C7F5000707FB06F64FEAC9
:100E900054374FEAD64606F1020607FB066CCCF142
:100EA000005C4FEA1C472CEA074C07FB06F40CFBDE
:100EB00006F504EB15464FEA961634BF00204FF0B6
:100EC00000404FEAD13706FB07FC4FEA1C4C0CFBF5
:100ED0000BF7D21B03FB0CF761EB07010CFB0EF7C2
:100EE000B0EB074072EB17420CFB08F734BFA2EBE4
:100EF0000742B2EB074261EB17414FEA0C444FEA5D
:100F0000910706FB07FC4FEA1C4C0CFB0BF7B0EB00
:100F1000C74072EB573203FB0CF734BFA2EBC7425A
:100F2000B2EBC74261EB57310CFB0EF7B0EBC700D9
:100F300072EB57720CFB08F734BFA2EBC702B2EB9F
:100F4000C70261EB5771039F4FEA816141EA921139
:100F500004EBCC044FEAD1374FEA826206FB07FC70
:100F600042EA90124FEA80604FEA1C4C0CFB0BF7F0
:100F7000D21B03FB0CF761EB07010CFB0EF7B0EB88
:100F8000074072EB17420CFB08F734BFA2EB074295
:100F9000B2EB074261EB17414FEA8C554FEA9107DC
:100FA00004EB9C2406FB07FC4FEA1C4C0CFB0BF7E4
:100FB000B0EBC74072EB573203FB0CF734BFA2EB28
:100FC000C742B2EBC74261EB57310CFB0EF7B0EBF7
:100FD000C70072EB57720CFB08F734BFA2EBC702D5
:100FE000B2EBC70261EB577115EB4C254FEA8161FB
:100FF00041EA92114FEA82624FEAD13742EA9012F7
:1010000006FB07FC44F100044FEA80604FEA1C4CE9
:101010000CFB0BF7D21B03FB0CF761EB07010CFB7E
:101020000EF7B0EB074072EB17420CFB08F734BF2A
:10103000A2EB0742B2EB074261EB174115EB1C151F
:101040004FEA813141EA92414FEA823242EA9042CC
:101050004FEA80304FEA0C7644F1000448EA03433B
:101060004EEA0B484FF0000EB2EB080C71EB030791
:1010700024BF624639464EEB0E0E4FF0000B0018AF
:10108000524149414BEB0B0BB2EB080C71EB0307E0
:101090007BF1000B24BF624639464EEB0E0E4FF03B
:1010A000000B0018524149414BEB0B0BB2EB080C03
:1010B00071EB03077BF1000B24BF624639464EEB10
:1010C0000E0E51EA020718BF46F0010616EB0E7627
:1010D00055F1000254F1000103D5BDE88901BDE8D6
:1010E0000088BDE88901BDE80048B619524141EBCE
:1010F0000101A3F10103704780807F7E7D7C7B7AB4
:101100007978777676757473727171706F6E6E6DB3
:101110006C6C6B6A6A696868676666656464636359
:1011200062616160605F5F5E5E5D5D5C5C5B5B5ADF
:101130005A5959585857575656555555545453534C
:1011400052525251515050504F4F4F4E4E4D4D4DA7
:101150004C4C4C4B4B4B4A4A4A49494948484847F2
:101160004747474646464545454444444443434330
:101170004342424242414141002B26D4770021D0D4
:101180001CB54FEA370703B44FF010004FF01001C1
:101190004FF000000FBCBDE810400BF1010BBBF19C
:1011A000010F08BF5FEA170722BF12F1010211F118
:1011B00001014FF0004143F1000300F0004043EA19
:1011C00000007047F9D35708DAE746EA064613F1FC
:1011D000400F4FEA16461FDD13F1200FDFBF164305
:1011E0000A46002120335B42C8D0C3F1200746EAFB
:1011F000064602FA07F74FEA164646EA0706C3F123
:10120000200722FA03F201FA07F721FA03F14FF05F
:10121000000342EA0702B1E746EA020646EA06464A
:101220004FEA164646EA0106BCBF46EA0646360CB9
:101230004FF000034FF000024FF000019EE72DE950
:10124000C048934630B491E8380007C831EA400CF2
:1012500048BF34EA430C03D5FFF7F2FDFFF78CFFDC
:10126000F0BCBDE800882DE9C048934630B491E851
:10127000380007C810F0804F08BF13F0804F03D12B
:1012800000F005F8FFF778FFF0BCBDE8008820F01B
:101290007F4780EA030023F07F4C07EB0C03A3F5A4
:1012A0007C5300F00040A3F1FE0392F0000F00F029
:1012B000B38095F0000F00F077802DE901494FEAE7
:1012C00011404FEA144621EA004800FB06FC24EADC
:1012D000064708FB06F607FB08F800FB07F718EBC4
:1012E00006484CEB164C4FEA124B18EB07484FEAF6
:1012F00015464CEB174022EA0B4E0BFB06FC25EA89
:1013000006470EFB06F607FB0EFE0BFB07F71EEB70
:10131000064E4CEB164C4FF000061EEB074E4CEB06
:10132000174B18EB0B0840F1000018EB0E0B58EBB5
:10133000000840F100008F1A4FF000013CBFC94384
:10134000661B14BFB5EB040C00213CBFC943F61B60
:101350004FEA17444EEA8E0E27EA04454FEA1C472F
:1013600004FB07622CEA074C05FB07F70CFB05F6AC
:1013700004FB0CFC16EB074642EB174216EB0C463F
:1013800042EB1C421BEB060658EB0202414146EAC7
:101390009E0601D5BDE80189B619524141EB010114
:1013A000A3F10103BDE801894FEA14454FEA114753
:1013B00024EA054621EA074C05FB07F406FB07F77C
:1013C0000CFB06F105FB0CFC11EB074144EB174449
:1013D0004FEA124711EB0C4144EB1C4422EA074C44
:1013E00005FB07F206FB07F70CFB06F605FB0CFCFA
:1013F00016EB074642EB174216EB0C4642EB1C4538
:101400006A1854F1000148BF7047B619524141EBC8
:101410000101A3F10103704795F0000F37D04FEAA7
:1014200011424FEA144721EA024624EA074C02FB24
:1014300007F106FB07F70CFB06F402FB0CFC14EBB0
:10144000074441EB17414FEA154714EB0C4441EBBD
:101450001C4125EA074C02FB07F506FB07F70CFBCE
:1014600006F602FB0CFC16EB074645EB174516EBA0
:101470000C4645EB1C42121951F1000148BF704760
:10148000B619524141EB0101A3F1010370474FEA44
:1014900014454FEA114724EA054621EA074C05FBAB
:1014A00007F106FB07F70CFB06F24FF0000605FB01
:1014B0000CFC12EB074241EB174112EB0C4251EBD3
:1014C0001C4148BF7047921841EB0101A3F1010391
:1014D0007047000010B50648006800F0ADF84FF402
:1014E000FA7001F03FFC00200249088010BD0000A6
:1014F000080000204800002000BFFEE70FB41CB524
:101500009DF83B20BDF82810079800F0F5F89DF8ED
:101510003B20BDF838100B9800F0EEF809980090C9
:1015200002208DF804008DF8050000208DF80600DB
:1015300001208DF807006946079800F095F80D988E
:10154000009002208DF804008DF8050000208DF831
:10155000060001208DF8070069460B9800F084F81A
:101560001CBC5DF814FB0FB408B59DF832008DF873
:10157000000001208DF801008DF802008DF80300B5
:10158000684600F0A1FA01B05DF814FB0FB410B585
:101590000A98012100F0FAFD0698012100F0F6FDFD
:1015A0000398202807D00398102804D0039801211D
:1015B00000F0FCFD03E00398012100F007FE10BCE1
:1015C0005DF814FB7FB505460C4600940020ADF88D
:1015D0000400ADF80600ADF80800ADF80C000C20D2
:1015E000ADF80A006946284601F0F4FA01212846C0
:1015F00001F088FA012240F22551284601F0C5FA8F
:101600007FBD70B504460D46164604B970BD2088EE
:101610000BE015F8011B204601F04BFB00BF4021F9
:10162000204601F07BFA0028F9D0301EA6F1010611
:10163000EFD100BFEAE7704770B504462046FEF7D9
:101640004AFF05462946204600F002F870BD00001A
:1016500070B504460D4603492A4608682146FFF73F
:10166000D0FF70BD74040020F0B50A4600210023AD
:10167000002400BF3DE0012505FA01F3156805EAE5
:1016800003049C4234D105684F000326BE40B54395
:10169000056015794E00B54006683543056015793B
:1016A000012D02D01579022D16D185684F00032631
:1016B000BE40B543856055794E00B54086683543D8
:1016C0008560456801268E40B5434560456896793A
:1016D0008E40B6B235434560C5684F000326BE4014
:1016E000B543C560D5794E00B540C6683543C56081
:1016F000491C1029BFD3F0BDF0B5002300244D07CD
:10170000ED0E02FA05F3CE1000F1200555F8265033
:101710004E07F70E0F26BE40B543CF1000F120064E
:1017200046F82750CE1000F1200555F8265045EA1E
:101730000304CE1000F1200545F82640F0BD024616
:10174000002013690B400BB1012000E0002070471E
:10175000418370470183704770B52DED048BCCB089
:101760000546002600204B90002405909FED3E0A80
:101770008DED040A9FED3C0A8DED030A002205A9B8
:1017800006A800F0ADFE2044C4B2012205A907A8B6
:1017900000F0A6FE2044C4B214B100F01DFE07E024
:1017A00004AB03AABDF81C10BDF8180000F092FDB0
:1017B000049802F083F941EC180B039802F07EF9CB
:1017C00041EC190B8DED008B53EC192B27A12BA8A5
:1017D000FEF782FD0C232BAA2621002000F060FBDF
:1017E0009DED030AF2EE040A20EE200ABDEEC00AC7
:1017F00010EE100A0A2190FBF1F201FB12019DED9F
:10180000030ABDEEC00A10EE100A01EB002008909A
:101810009DED040AF2EE040A20EE200ABDEEC00A95
:1018200010EE100A0A2190FBF1F201FB12019DED6E
:10183000040ABDEEC00A10EE100A01EB0020099068
:101840000A95032308AA4BA90BA801F0CDFA064676
:1018500001F036FB18B931460BA8FFF7F9FE4CB082
:10186000BDEC048B70BD00000000000074656D705D
:101870003A25322E32662068756D3A25322E326650
:101880000000000030B503460C462146002002E06F
:101890005D5C6840491C9142FADB30BD00BFFEE749
:1018A0001CB50121112000F071FC1C2000900020CB
:1018B0008DF8040003208DF8050001208DF8070045
:1018C00069460648FFF7D0FE0120009002208DF8FF
:1018D000070069460248FFF7C7FE1CBD0010024022
:1018E0000000024010B5044614B101202C490870D4
:1018F0002B480078002837D010212A48FFF71FFF17
:1019000078B108212748FFF71AFF50B10421254874
:10191000FFF715FF28B101212348FFF710FF012829
:1019200022D10A2001F01EFA00201D490870102162
:101930001C48FFF704FF08B9012010BD0821194811
:10194000FFF7FDFE08B90220F7E704211548FFF76D
:10195000F6FE08B90320F0E701211348FFF7EFFE78
:1019600001281BD10420E8E710210E48FFF7E7FE0D
:10197000012813D108210B48FFF7E1FE01280DD102
:1019800004210848FFF7DBFE012807D101210648A2
:10199000FFF7D5FE10B90120014908700020CCE7FF
:1019A0000000002000100240000002401CB5012190
:1019B000572000F0EBFB4FF4A070009001208DF851
:1019C000040000208DF8060002208DF8050001209B
:1019D0008DF8070069461A48FFF746FEC0200090C0
:1019E00069461848FFF740FE4FF442700090694680
:1019F0001548FFF739FE6020009069461348FFF74D
:101A000033FE48F2C000009069461148FFF72CFEF3
:101A10004FF4A0710A48FFF79DFEC0210948FFF767
:101A200099FE4FF442710848FFF794FE6021074881
:101A3000FFF790FE48F2C0010548FFF78BFE1CBD82
:101A40000000024000040240000802400010024072
:101A5000001802401CB50121202000F097FB4FF434
:101A6000C060009001208DF8040000208DF8060071
:101A700003208DF8050001208DF807006946044811
:101A8000FFF7F2FD4FF4C0610148FFF763FE1CBD94
:101A90000014024070B505460C46164628880BE037
:101AA00014F8011B284601F004F900BF4021284624
:101AB00001F034F80028F9D0301EA6F10106EFD16C
:101AC00070BD00BFFEE7704770B5002100230F22F4
:101AD000C4781CB3174C246804F4E064C4F5E064D3
:101AE000C4F30721C1F10404E3B20A4144789C40E5
:101AF000E1B28478144021430C07210E0E4C057886
:101B00006155047804F01F050124AC4005786D117F
:101B1000AD0005F1E025C5F8004109E0047804F0C6
:101B20001F050124AC40054D0678761145F8264086
:101B300070BD00000CED00E000E400E080E100E09A
:101B400002490143024A1160704700000000FA0593
:101B50000CED00E030B500240CE0002506E000208C
:101B6000074901EBC5010855681CC5B2802DF6DB9D
:101B7000601CC4B2082CF0DB00F0E6F830BD0000B9
:101B800074000020F0B5144600267F2801DC3F29B0
:101B900000DDF0BD0B46CF1701EB5777FF10C7F103
:101BA0000707FAB2CF1701EB5777FF10A1EBC70772
:101BB000FDB2C5F107070123BB40DEB24CB10A4BB1
:101BC00003EBC0039B5C3343074F07EBC007BB54D9
:101BD00008E0054B03EBC0039B5CB343024F07EBEC
:101BE000C007BB5400BFD4E7740000201CB501211E
:101BF000262000F0CBFA0720009001208DF8040089
:101C000000208DF8060003208DF8050001208DF8D6
:101C1000070069464548FFF727FD04200090694604
:101C20004348FFF721FD4FF40060009069464148AA
:101C3000FFF71AFD0120404908604049C1F88802B9
:101C40003F4908603F49086000203D49091D086080
:101C5000642001F087F801203849C1F8840200218E
:101C6000AE2000F04DF90021D52000F049F9002107
:101C7000502000F045F90021A82000F041F9002192
:101C80003F2000F03DF90021D32000F039F9002178
:101C9000084600F035F90021402000F031F900211C
:101CA0008D2000F02DF90021142000F029F90021E9
:101CB000202000F025F90021022000F021F9002168
:101CC000A12000F01DF90021C02000F019F9002129
:101CD000DA2000F015F90021122000F011F900219E
:101CE000812000F00DF90021EF2000F009F900211A
:101CF000D92000F005F90021F12000F001F90021C0
:101D0000DB2000F0FDF80021302000F0F9F8002180
:101D1000A42000F0F5F80021A62000F0F1F8002141
:101D2000AF2000F0EDF8FFF715FF1CBD00040240E6
:101D300000080240001402408802414200804042F4
:101D400080824042AC82424230B500241CE004F163
:101D5000B001C8B2002100F0D3F80021084600F01D
:101D6000CFF80021102000F0CBF8002508E008494A
:101D700001EBC501085D012100F0C2F8681CC5B285
:101D8000802DF4DB601CC4B2082CE0DB30BD000009
:101D9000740000202DE9F84F80460F4616461C4679
:101DA000BA462046E31704EB5373DB1021464FEA93
:101DB000E47C04EB5C7C4FEAEC0CA4EBCC0CBCF1B7
:101DC000000F02D04FF0010C01E04FF0000C634413
:101DD000224604EBD27C4FEA6C0C03FB0CF303F0BD
:101DE000FF0BA6F12000C6B200254EE00C2C07D157
:101DF00006EB4600274901EB8000405D009013E0B0
:101E0000102C05D1244800EB0610405D00900BE03B
:101E1000182C07D106EBC600204901EB8000405D7D
:101E2000009001E0BDE8F88F4FF0000927E000982E
:101E300000F0800028B1394640460A9AFFF7A2FE1A
:101E400009E00A9808B9012000E00020024639465E
:101E50004046FFF797FE00984006000E0090781C61
:101E6000C7B2A7EB0A00A04205D1574608F101000E
:101E700000F0FF0806E009F1010000F0FF09B9F1E8
:101E8000080FD4DB00BF681CC5B25D45AEDB00BFE8
:101E9000C8E70000AC3B00082040000810460008DE
:101EA000F8B506460F4615461C4621E004EBD471F2
:101EB0004910C1F18001B14202DA00263819C7B2D7
:101EC000C4F14000B84204DA002006460746FFF796
:101ED00041FE012000902A78234639463046FFF71C
:101EE00059FF204604EBD07106EB6101CEB26D1CA8
:101EF00028787E2802DC28782028D7DAF8BD000070
:101F000010B5134B19600023124CC4F88032002224
:101F100013E00023104C236000F080031BB1012369
:101F20000E4C236002E000230C4C236001230A4C7A
:101F300023604306180E531CDAB2082AE9DB01239A
:101F4000054C083C2360064CC4F8AC3210BD0000C0
:101F5000AC82424200804042888240428802414234
:101F6000008042422DE9F84F05460F464FF0000B26
:101F700000260024A046162F06DA16215FA000F0E6
:101F8000C1FB0020BDE8F88F2046641C285C614935
:101F900008707E2805D010215FA000F0B3FB002060
:101FA000F0E72046641C285C5A494870012805D097
:101FB00010215EA000F0A6FB0020E3E74FF0080828
:101FC0000020544A9060D06013E02046641C15F84D
:101FD000009000204FEAC802009048460099FEF7A2
:101FE00054F94C4B9A68DB6880185941494A906013
:101FF000D160B8F10000A8F10108E6D14548816838
:10200000C0684F4B0CCB51405840014305D00C21C8
:102010004CA000F077FB0020B4E72046641C285C4D
:102020003C4908747A1E0F212846FFF72BFC824694
:102030003848017C514505D00C2146A000F062FBD8
:1020400000209FE74FF003080020324948610AE072
:102050002046641C285C4FEAC80188402D49496924
:1020600008442C494861B8F10000A8F10108EFD1FB
:102070002046641C285C274908760846007E391BE8
:10208000884205D00E2137A000F03CFB002079E704
:102090002046641C285C1F49C8611BE0641C0021A9
:1020A0001C48243040F8261010E02046641C285CB0
:1020B0004FEACB0188401749243151F826100144DA
:1020C0001448243040F826100BF1010BBBF1040F2B
:1020D000EBDB761C0F48C069B042DFDC2046641C95
:1020E000285C0C4981F820007E2805D0102121A011
:1020F00000F008FB002045E7204643E7B7FECEF19D
:10210000C6F7CAFDBEDDB3A4B6C8B2BBB4EFB1EA30
:102110000D0A000030060020C3BBD3D0D5D2B5BD18
:10212000CAFDBEDDCDB70D0A00000000CAFDBEDD50
:10213000CDB7C0E0D0CDD2ECB3A30D0A00000000B3
:1021400058000020C9E8B1B84944D2ECB3A30D0A45
:1021500000000000D0A7D1E9BACDD2ECB3A30D0A9C
:1021600000000000CAFDBEDDB3A4B6C8D2ECB3A324
:102170000D0A0000C3BBD3D0D5D2B5BDCAFDBEDDAC
:10218000CEB20D0A000000007047000029B1064AD7
:1021900012680243044B1A6004E0034A1268824347
:1021A000014B1A60704700003038024029B1064ADE
:1021B00012680243044B1A6004E0034A1268824327
:1021C000014B1A60704700004038024029B1064AAE
:1021D00012680243044B1A6004E0034A1268824307
:1021E000014B1A607047000044380240F0B50021EE
:1021F00000220024022500260223324F3F6807F008
:102200000C0121B1042905D0082937D105E02E4F52
:10221000076036E02D4F076033E02A4F3F1F3F68CD
:10222000C7F38056274F3F1F3F6807F03F036EB14B
:10223000264FB7FBF3F7DFF88CC0ACF1040CDCF8E9
:1022400000C0CCF3881C07FB0CF40CE01E4FB7FB5E
:10225000F3F7DFF870C0ACF1040CDCF800C0CCF38D
:10226000881C07FB0CF4174F3F1F3F68C7F301475B
:102270007F1C7D00B4FBF5F7076002E0124F07609A
:1022800000BF00BF0F4F3F6807F0F0010909104F72
:102290007A5C0768D74047600A4F3F6807F4E0510F
:1022A000890A0B4F7A5C4768D7408760054F3F68C3
:1022B00007F46041490B064F7A5C4768D740C76016
:1022C000F0BD0000083802400024F40000127A003B
:1022D000640000209FED385AF0EE451A9FED375A02
:1022E000B0EE452A9FED365AF0EE452A9FED355A5D
:1022F000B0EE453A9FED345AF0EE453A9FED2F5A35
:10230000B0EE454A9FED315AF0EE454A05EE100A0F
:10231000F8EE455A9FED285A9FED286A06EE255A99
:10232000F0EE450A05EE101AF8EE455A9FED245AD4
:102330009FED246A06EE255A05EE901AF8EE655ACE
:102340009FED216A25EE866A05EE901AF8EE655A31
:1023500006EE255AB0EE451AB3EE095A30EEC56ABC
:1023600005EE101AF8EE455A9FED145ADFED176A84
:1023700006EEA55AF0EE415A46EE055AB0EE650A51
:102380009FED135AB4EEC50AF1EE10FA03DD9FED8E
:10239000105AB0EE450A9FED0F5AB4EEC50AF1EEA1
:1023A00010FA03D29FED0B5AB0EE450A83ED000AF6
:1023B000C2ED000A70470000CDCC1EC20AD7233CF4
:1023C000C5FE02C0BD52163DF624D6B5ACC5A73831
:1023D0000000C842CDCCCC3D10B500F065F84FF4FC
:1023E00000710F48FFF7B6F94FF480710C48FFF702
:1023F000AFF900240FE04FF480710948FFF7AAF904
:1024000000F066F84FF480710548FFF7A1F900F07D
:102410005FF8601CC4B2092CEDDB00F0F5F810BDCC
:10242000000402401CB501210220FFF7AFFE4FF46B
:102430000070009001208DF8040002208DF8050046
:1024400000208DF8060069460A48FFF70DF94FF4A1
:102450008070009001208DF8040002208DF80500A6
:1024600000208DF8060069460248FFF7FDF8FFF7E7
:10247000B3FF1CBD000402401CB500208DF8040011
:102480004FF40070009002208DF8050000208DF8B8
:10249000060001208DF8070069460248FFF7E4F8BE
:1024A0001CBD0000000402401CB54FF400700090F9
:1024B00001208DF8040002208DF8050000208DF821
:1024C000060069460148FFF7CFF81CBD0004024032
:1024D0004FF4FA7001E0411E88B20028FBDC70471F
:1024E0002DE9F04706460F4690460024A146A24635
:1024F00000F08AF8B8F1000F03D0B8F1010F0CD149
:1025000005E0032000F0BAF82044C4B206E005203C
:1025100000F0B4F82044C4B200E000BF00BFFFF7F1
:10252000ABFF002507E04FF400711248FFF707F9F1
:1025300000B903E06D1C10488542F4D300BF4FF48E
:1025400000710C48FFF7FBF8012801D1601CC4B2F0
:10255000012000F013F88146012000F00FF88246B8
:10256000002000F00BF838704AEA0920308020463D
:10257000BDE8F0870004024000A24A0470B5054699
:102580000026FFF779FF802419E0FFF7A1FF4FF441
:1025900080711C48FFF7DEF8FFF79AFF4FF40071D7
:1025A0001848FFF7CCF800B126434FF48071154866
:1025B000FFF7CEF8204604EBD071C1F34704002C9E
:1025C000E3DCFFF771FF2DB14FF400710D48FFF709
:1025D000BFF804E04FF400710A48FFF7BBF8FFF7BB
:1025E00077FF4FF480710748FFF7B4F8FFF770FFEB
:1025F0004FF480710348FFF7ABF8FFF769FF3046EF
:1026000070BD00000004024010B5FFF74DFF4FF40D
:1026100000711948FFF79EF84FF480711648FFF7D4
:1026200097F8FFF755FF4FF480711348FFF792F8C2
:10263000FFF74EFF4FF400710F48FFF789F8FFF7DF
:1026400047FF4FF480710C48FFF782F8FFF740FF17
:102650004FF480710848FFF77DF8FFF739FF4FF41A
:1026600000710548FFF776F8FFF732FF4FF48071ED
:102670000148FFF76DF810BD0004024070B5054633
:102680000026FFF711FF802422E004EA050028B1AC
:102690004FF400711948FFF75DF804E04FF4007142
:1026A0001648FFF755F8FFF713FF4FF480711348F2
:1026B000FFF750F8FFF70CFF4FF480710F48FFF75A
:1026C00047F8FFF705FF204604EBD071C1F347043C
:1026D000002CDADCFFF7D0FE4FF480710748FFF7DB
:1026E00039F84FF400710548FFF729F806464FF412
:1026F00080710248FFF72CF8304670BD000402409C
:102700007047000070B504460D462A46214602482F
:10271000FFF7C0F970BD0000005000400CB500206C
:10272000019000903448006840F4803032490860DD
:1027300000BF3148006800F4003000900198401C50
:102740000190009818B90198B0F5A04FF1D12A482E
:10275000006800F4003010B10120009001E000207A
:1027600000900098012846D123484030006840F08E
:1027700080502149403108602048006840F44040C2
:102780001E4908601C48083000681B490831086071
:102790000846006840F4004008600846006840F4BD
:1027A000A05008601648091F0860081F006840F024
:1027B0008070091F086000BF0F48006800F00070BB
:1027C0000028F9D040F205700E4908600A48083028
:1027D000006820F0030008490831086008460068D6
:1027E00040F00200086000BF03480830006800F0B5
:1027F0000C000828F8D10CBD0038024000700040E1
:1028000008544007003C0240042808D14FF0E02162
:10281000096941F004014FF0E022116107E04FF037
:10282000E021096921F004014FF0E02211617047B5
:102830007047000010B51548006840F47000134957
:1028400008601348006840F001001149086000204A
:102850000F49083108600E4800680E4908400C49CD
:1028600008600D48091D0860081F006820F48020DA
:10287000091F0860002006490C310860FFF74EFF71
:102880004FF0006001498039086010BD88ED00E01C
:1028900000380240FFFFF6FE1030002410B5012181
:1028A000094800F052F8012805D10848008840F492
:1028B0000040064908800121034800F037F8002154
:1028C000014800F036F810BD000400404800002028
:1028D0007FB505460C4601210220FFF767FC0295F3
:1028E000ADF804400020ADF80600ADF80C0001A9D9
:1028F0000D4800F047F8012211460B4800F036F869
:102900000121094800F015F81D208DF80000012074
:102910008DF8010003208DF8020001208DF80300DE
:102920006846FFF7D1F87FBD00040040CA43028229
:10293000704721B1028842F00102028004E002885F
:102940004FF6FE731A400280704730B502460020F1
:1029500000230024158A05EA0103958905EA01048C
:1029600013B10CB1012000E0002030BD1AB1838901
:102970000B43838102E083898B43838170474162EB
:102980007047000000220288184B98420ED0184B66
:1029900098420BD0B0F1804F08D0164B984205D02A
:1029A000154B984202D0154B984204D14FF68F73C5
:1029B0001A404B881A43124B984207D0114B984249
:1029C00004D04FF6FF431A400B891A4302804B682C
:1029D000C3620B880385054B984202D0044B984292
:1029E00001D18B7A03860123838270470000014066
:1029F000000401400004004000080040000C0040BA
:102A0000001000400014004010B51849086840F25A
:102A1000255100F090F800B31449086800F044F91B
:102A2000C4B21348008800F40040B0B910480088D0
:102A3000C82813DA00210F48FFF7A1FF0C480088CF
:102A400018B901210B48FFF774FF09480188008875
:102A5000401C074A10800848445405E00448008898
:102A600040F400400249088010BD000074040020BA
:102A70004800002000040040A004002010B540F2EF
:102A800025511D4800F057F810B31B4800F00CF911
:102A9000C4B21A48008800F40040C8B9174800883A
:102AA00000F4804060B10A2C03D000201349088054
:102AB00020E01248008840F400401049088019E0E6
:102AC0000D2C06D10D48008840F480400B49088049
:102AD00010E00A480088C0F30D0009490C5407486B
:102AE0000088401C0549088008460088C72801DD89
:102AF0000020088010BD0000005000405000002061
:102B00006805002021B1828942F40052828104E0EC
:102B100082894DF6FF731A40828170470246002079
:102B2000B1F5007F00D100BF13880B400BB101202D
:102B300000E00020704770B5024600240023002505
:102B4000002040F66A16B14200D100BFC1F3421521
:102B500001F01F03012606FA03F3012D02D1968925
:102B6000334006E0022D02D1168A334001E0968AF6
:102B700033400C12012606FA04F41688344013B1CF
:102B80000CB1012000E0002070BDF0B50346002428
:102B900000260025002040F66A17B94200D100BF88
:102BA0001846C1F3421401F01F06012707FA06F583
:102BB000012C01D10C3004E0022C01D1103000E0D6
:102BC00014301AB107682F43076002E00768AF436B
:102BD0000760F0BD2DE9FF4705460E460024A146DB
:102BE00000BFA046B08900B100BF2C8A24F4405435
:102BF000F08804432C82AC8941F20C608443B08895
:102C000031890843718908430443AC81AC8A24F4B8
:102C10004074B0890443AC826846FFF7E7FA204865
:102C2000854202D01F48854202D1DDF80C9001E0B8
:102C3000DDF80890A88900F4004040B109EBC90014
:102C400000EB091031684900B0FBF1F707E009EB30
:102C5000C90000EB091031688900B0FBF1F764206E
:102C6000B7FBF0F004012009642101FB1078A8896A
:102C700000F4004040B1322000EBC800B0FBF1F09E
:102C800000F00700044308E0322000EB0810642144
:102C9000B0FBF1F000F00F0004432C81BDE8FF878A
:102CA000001001400014014001468888C0F308006C
:102CB0007047C1F308028280704700BFFEE703B48B
:102CC00001984100009850EAC12018BF04204A0D25
:102CD00018BF40F0010040F2FF72B2EB515F08BF35
:102CE00040F00200012808BF052002B070473038CC
:102CF0000A2801D20120704700207047014600BF1A
:102D00007047F0B5044600201D6809E0C60021FAAE
:102D100006F606F0FF0C2E466D1C04F806C0401C9B
:102D20009042F3DB1D60F0BD10B504466FF0040067
:102D3000FFF76AFDE11704EB5171C1F3C701074AC0
:102D400011701046007800EB4001C1EBC0104FF647
:102D5000FF7101EAC0000249088010BD5200002046
:102D60005400002070B504464FF4077094FBF0F057
:102D7000C6B24FF4077094FBF0F100FB114085B22E
:102D800005E04FF4077000F009F8701EC6B2002E7F
:102D9000F7D115B1284600F001F870BD0146114A7F
:102DA00012884A434FF0E0235A6100229A611A4682
:102DB000126942F001021A6100BF4FF0E02210696F
:102DC00000F001021AB100F48032002AF5D04FF071
:102DD000E022126922F001024FF0E0231A61002282
:102DE0009A617047540000202DE9F84F044692463E
:102DF0001D46002000900026002783467E21009A71
:102E0000501C0090A1540121009A501C0090A15424
:102E100008270CE0FA002848D0E9008940464946D6
:102E2000FDF746FAC1B2009A501C0090A154381E1A
:102E3000A7F10107EED1DDF800B00BF10100009021
:102E4000032708E0F9001D480068C840C1B2009A95
:102E5000501C0090A154381EA7F10107F2D105EBD8
:102E60008500801CC1B2009A501C0090A154009AA9
:102E7000501C0090A5540DE0701CC1B2009A501C6B
:102E80000090A1545AF826106B4604222046FFF702
:102E900038FF761CAE42EFDB0F212046009AFEF78A
:102EA000F1FC04F80B007E21009A501C0090A15404
:102EB0000098BDE8F88F0000580000206000002056
:102EC00010B540210148FEF73AFC10BD000C02404D
:102ED000024B03C3024B1A607047000058000020E9
:102EE0006000002000B595B04548464908604FF4A1
:102EF000002048604FF4E1308860042008614248B7
:102F0000C860C01448610B200883042008623E4852
:102F1000C861001548620A200885082081F82B0046
:102F2000342081F82A000846006808900846406866
:102F30000990084680680A900846C0680B900846C9
:102F400000690C90084640690D900846008BADF86A
:102F500038000846C0690F900846006A109008467D
:102F6000406A11900846008DADF84800084690F878
:102F70002A008DF84A00084690F82B008DF84B0087
:102F80001C220CA96846FDF7C5FA08A80FC800F076
:102F900043F801210820FFF7F9F880201390012061
:102FA0008DF8500000208DF8520003208DF851005C
:102FB00001208DF8530013A91448FEF755FB80211A
:102FC0001248FEF7C7FB4020139000208DF85000F8
:102FD0008DF8520003208DF8510013A90B48FEF71D
:102FE00043FB42F2CF011D20FFF772FC002008498D
:102FF000088000210748FFF79CFC15B000BD0000C9
:10300000004C00407404002000080240000C024004
:1030100048000020000400400FB400B593B014989D
:1030200008901598099016980A9017980B90189880
:103030000C9019980D90BDF86800ADF838001B98F9
:103040000F901C9810901D981190BDF87800ADF865
:1030500048009DF87A008DF84A009DF87B008DF8B5
:103060004B001C220CA96846FDF754FA08A80FC8AB
:10307000FEF78CFA149808901598099016980A9003
:1030800017980B9018980C9019980D90BDF868003F
:10309000ADF838001B980F901C9810901D98119057
:1030A000BDF87800ADF848009DF87A008DF84A0028
:1030B0009DF87B008DF84B001C220CA96846FDF79B
:1030C00029FA08A80FC8FEF719FA1498089015985D
:1030D000099016980A9017980B9018980C901998C8
:1030E0000D90BDF86800ADF838001B980F901C9843
:1030F00010901D981190BDF87800ADF848009DF82B
:103100007A008DF84A009DF87B008DF84B001C2258
:103110000CA96846FDF7FEF908A80FC8FEF723FAC8
:1031200016991498FEF74EFA13B05DF814FB0000E0
:1031300070B5002400259AE0052C1FD2DFE804F0CA
:10314000031F3B5773004E480068FEF775FA4FF4B3
:10315000FA70FFF707FE4B4801784B48FFF7D2FAA9
:103160004A480068FDF7B7F9064632464748016805
:10317000454800F031FA4349088005466FE044486D
:103180000068FEF759FA4FF4FA70FFF7EBFD3D487F
:1031900001783D48FFF7B6FA3E480068FDF79BF915
:1031A000064632463B480168374800F015FA354973
:1031B0000880054653E038480068FEF73DFA40F6BF
:1031C000B830FFF7CFFD2F4801782F48FFF79AFA64
:1031D00032480068FDF77FF9064632462F480168FD
:1031E000294800F0F9F927490880054637E02C48BE
:1031F0000068FEF721FA4FF4FA70FFF7B3FD21489B
:1032000001782148FFF77EFA26480068FDF763F948
:1032100006463246234801681B4800F0DDF919498B
:10322000088005461BE020480068FEF705FA4FF4C9
:10323000FA70FFF797FD134801781348FFF762FA19
:103240001A480068FDF747F90646324617480168F4
:103250000D4800F0C1F90B490880054600BF00BFCA
:10326000641C002007490880052C00D102E0002DD5
:103270003FF462AF00BFFEF72DF9284670BD000095
:103280000400002048000020A00400202C000020A2
:103290000C00002034000020100000203800002026
:1032A000140000203C0000201800002040000020F6
:1032B000A0B000244FF4A060FEF742FCA820FFF766
:1032C00033FDFEF7C7FBFEF791FC0B20FFF74AFD2D
:1032D0004FF4E13000F068FBFFF7A4F8FFF702FEBF
:1032E000724A73487349FFF7F3FDFEF75FFB0C2347
:1032F00071A200210846FEF7D3FD0C2373A20E2114
:103300000020FEF7CDFD0C2375A21A210020FEF748
:10331000C7FDFEF719FD002000F0F8F9204600F087
:103320002DFAFEF7BDFABFE070480088B0F5004FF7
:1033300037DD0B20FFF716FD0C236DA23221002094
:10334000FEF7AEFD694801786C48FEF70BFE0028D9
:1033500024D00C236AA232210020FEF7A1FD6C4884
:10336000406A012808D16B4908600C236AA2322107
:103370000020FEF795FD07E00020664908600C2359
:1033800069A23221FEF78CFD61486AA1426A684653
:10339000FCF7A2FF14216846FFF7B4F90020534957
:1033A00008800020FEF79EFA0546002000F0AEF9E6
:1033B000204600F0E3F9002D5ED0012D3ED0022D15
:1033C0001CD0032D49D0042D51D10C235DA23221F4
:1033D0000020FEF765FDFEF7B7FCFFF7A9FE30B948
:1033E0000C235DA232210020FEF75AFD05E00C23DC
:1033F0005EA232210020FEF753FD38E04FF0FF308F
:10340000FEF7AAF96420FFF7ADFC0C235BA2322182
:103410000020FEF745FDFEF797FC00F0F9F830B903
:103420000C235BA232210020FEF73AFD05E00C23BD
:103430005CA232210020FEF733FD18E00C235DA2D0
:1034400032210020FEF72CFD641C2046E11704EB1E
:1034500091718910A4EB810409E001202D490860D5
:103460000C2358A232210020FEF71AFD00BF00BF36
:10347000204600F083F902E00A20FFF773FCFFF713
:103480001FFD30B10C2352A21A214220FEF708FD85
:1034900005E00C234FA21A214220FEF701FD204631
:1034A000FEF75AF9FEF750FC3EE7000056341200D2
:1034B000C2BF1C66011020DC4B45595F55503A20B5
:1034C0004C696E6B5F536572766572004B45595F50
:1034D00031203A20526573745F5749464900000015
:1034E0004C696E6B2053746174653A00480000208B
:1034F000203E38303030302020000000A004002072
:10350000A1ADA1AD26A1ADA1AD3830303030200045
:1035100030060020A4824242202020202531252090
:1035200020202020200000002020202020253025E1
:1035300020202000D6B8C1EECAFDD6B53A25640DCC
:103540000A0000005749464920536574207374618E
:1035500072742E2E2E000000574946492053657480
:103560002053756363657373000000005749464933
:1035700020536574204661696C0000005749464934
:1035800020526573742073746172742E2E2E0000A5
:1035900057494649205265737420537563636573B8
:1035A00073000000574946492052657374204661F4
:1035B000696C000020616464204E554D20494E47DF
:1035C0002020200053454E44204441544100000037
:1035D0004E4F00004F4B000070B503460020012401
:1035E0000DE0651CECB21D780E78B54202D15B1C73
:1035F000491C04E01D780E78AD1BE8B205E01D788B
:103600001DB10D780DB19442EBD900BF70BD000023
:1036100070B50024002561E024B1012C1ED0022CDD
:1036200054D137E031480068FEF706F84FF47A705D
:10363000FFF798FB2E4801782E48FFF763F82E48D5
:103640000068FCF748FF064632462B4801682948C7
:10365000FFF7C2FF26490880054637E02748006883
:10366000FDF7EAFF4FF4FA60FFF77CFB2048017892
:103670002048FFF747F822480068FCF72CFF064671
:1036800032461F4801681B48FFF7A6FF184908800B
:1036900005461BE01B480068FDF7CEFF4FF47A702B
:1036A000FFF760FB124801781248FFF72BF8164825
:1036B0000068FCF710FF06463246134801680D48C3
:1036C000FFF78AFF0A490880054600BF00BF641C57
:1036D000002007490880032C00D101E0002D9BD079
:1036E00000BFFDF7F7FE284670BD00000400002073
:1036F00048000020A00400202C0000202000002012
:1037000044000020180000204000002010B50446AE
:10371000032C01DC002C00DA10BD40211448FEF718
:1037200019F860211348FEF715F840211248FEF7FA
:1037300011F834B1012C09D0022C0CD0032C14D177
:103740000EE040210A48FEF703F80EE02021094868
:10375000FDF7FEFF09E040210748FDF7F9FF04E00F
:1037600040210448FDF7F4FF00BF00BF00BFD3E7CE
:1037700000040240001002400000024010B5044660
:10378000002C01DB092C00DD10BD4FF48071824854
:10379000FDF7E0FF80218148FDF7DCFF4FF4427127
:1037A0007F48FDF7D7FF48F2C0017E48FDF7D2FF02
:1037B0000A2094FBF0F100FB11400A2821D2DFE837
:1037C00000F005212B42596C829DACCC80217548BC
:1037D000FDF7BEFF4FF480716F48FDF7B9FF4FF45E
:1037E00000716F48FDF7B4FF80216C48FDF7B0FF12
:1037F0004FF400416B48FDF7ABFF08216848FDF727
:10380000A7FFC5E008216648FDF7A2FF4FF400417D
:103810006448FDF79DFFBBE080216248FDF798FFFB
:103820004FF480715C48FDF793FF40215D48FDF740
:103830008FFF4FF400415B48FDF78AFF8021574816
:10384000FDF786FFA4E080215648FDF781FF4FF485
:1038500080715148FDF77CFF40215248FDF778FF09
:103860004FF400714E48FDF773FF80214B48FDF780
:103870006FFF8DE008214A48FDF76AFF4FF4807121
:103880004548FDF765FF40214648FDF761FF4FF4CD
:1038900000714348FDF75CFF7AE080214148FDF765
:1038A00057FF08213E48FDF753FF40213D48FDF7F3
:1038B0004FFF4FF400713A48FDF74AFF8021374827
:1038C000FDF746FF64E080213648FDF741FF0821FF
:1038D0003348FDF73DFF4FF400413248FDF738FF14
:1038E00080212E48FDF734FF4FF400712C48FDF77E
:1038F0002FFF40212B48FDF72BFF49E0802129486D
:10390000FDF726FF4FF480712348FDF721FF4FF4A8
:1039100000712348FDF71CFF3AE080212148FDF7A4
:1039200017FF4FF480711C48FDF712FF4FF4007130
:103930001B48FDF70DFF80211848FDF709FF4FF4E4
:1039400000411848FDF704FF08211548FDF700FF66
:1039500040211448FDF7FCFE1AE080211148FDF7D4
:10396000F7FE4FF480710C48FDF7F2FE4FF4007142
:103970000B48FDF7EDFE80210848FDF7E9FE082120
:103980000748FDF7E5FE40210648FDF7E1FE00BFD0
:1039900000BF00BFF8E60000000002400004024043
:1039A000000802400018024010B588B0044601210A
:1039B0000420FEF7EBFB01210820FEF7E7FB0121C5
:1039C0000805FEF7F3FB08220C212B48FDF794FEB7
:1039D000082202212948FDF78FFE042006900220CC
:1039E0008DF81C008DF81D0000208DF81E000120B0
:1039F0008DF81F0006A92148FDF736FE4FF48050D0
:103A0000069002208DF81C008DF81D0000208DF816
:103A10001E0001208DF81F0006A91748FDF724FE9F
:103A200002940020ADF80C00ADF80E00ADF81000C7
:103A3000ADF814000C20ADF8120002A91048FFF7F1
:103A4000C9F801210E48FFF75DF8012240F2255127
:103A50000B48FFF79AF835208DF8040003208DF805
:103A600005008DF8060001208DF8070001A8FEF77B
:103A70002BF808B010BD000000080240000C024006
:103A80000050004010B500290AD00878002807D05F
:103A900005487844FDF722F9002801D0002010BD28
:103AA0000248784410BD0000EA1A0000E21A000043
:103AB0000808A0F500114FEA3101704743004FEAB2
:103AC000D30C4FEA3C0C43401FBF40070CF1605140
:103AD00013F0FE4F70471CF0006F03D100200CF074
:103AE000004170470CF0004343EA507010B540EAC3
:103AF000CC0000F00EF800BF000000924FEA000179
:103B0000FFF7D6BF4FF000414FF00000A1F50021B4
:103B100070470EF1020E2EF0030E5EF8044B2442A5
:103B200004D44FEA4102B2F17F4F11D84FEA40036B
:103B3000B3F17F4F0CD80ED14FEAD07CB2F17F4F5A
:103B40000CEB4C0C0CF1020C08BF4CEBD17C04E0EC
:103B50004FF0080C01E04FEAD17C0CEB4C0324FA47
:103B600003F404F00704B4F1040C06D20EEB840C49
:103B7000BDE810404CF0010C6047DFE80CF007088E
:103B800002024FF00040A0F5800010BD0846420040
:103B900018BFD2F1807288BF00F0004010BD4FF016
:103BA0004070E1EE100A7047FCF71ABE00000000FA
:103BB0000000000000000000000000003F40000086
:103BC0000000000000003000400030004000000015
:103BD00009000BC03D000BC03D00090018C0244087
:103BE0007FE0224031800000180024C01B000D80BF
:103BF0003240018003801C4027401C800740004069
:103C00001000600000000000000000000000000044
:103C100000001F80204040200000402020401F80E6
:103C200000000000090006001F80060009000000D7
:103C3000040004003F800400040000000010006045
:103C40000000000000000000040004000400040064
:103C50000400000000000040000000000000000020
:103C6000002001C006003800400000001F802040F6
:103C7000204020401F800000000010403FC0004056
:103C80000000000018C021402240244018400000DD
:103C900010802040244024401B80000002000D00C2
:103CA00011003FC0014000003C80244024402440DB
:103CB000238000001F802440244034400380000003
:103CC0003000200027C03800200000001B80244066
:103CD000244024401B8000001C0022C022402240BF
:103CE0001F800000000000000840000000000000ED
:103CF000000000000460000000000000000004005C
:103D00000A00110020804040090009000900090054
:103D10000900000000004040208011000A0004005B
:103D20001800200023402400180000001F802040BD
:103D3000274029401F400000004007C039000F0005
:103D400001C0004020403FC0244024401B800000B0
:103D50001F802040204020403080000020403FC095
:103D6000204020401F80000020403FC024402E40C3
:103D700030C0000020403FC024402E003000000032
:103D80000F001080204022403380020020403FC0BE
:103D9000040004003FC02040204020403FC020409D
:103DA000204000000060202020203FC02000200094
:103DB00020403FC024400B0030C0204020403FC086
:103DC00020400040004000C03FC03C0003C03C0019
:103DD0003FC0000020403FC00C4023003FC02000F7
:103DE0001F802040204020401F80000020403FC016
:103DF00024402400180000001F802140214020E0C2
:103E00001FA0000020403FC02440260019C00040F1
:103E100018C024402440224031800000300020405F
:103E20003FC020403000000020003F8000400040A4
:103E30003F80200020003E0001C007003800200025
:103E4000380007C03C0007C038000000204039C0DF
:103E5000060039C0204000002000384007C038402C
:103E600020000000304021C02640384020C0000023
:103E7000000000007FE040204020000000007000B3
:103E80000C000380004000000000402040207FE044
:103E900000000000000020004000200000000000A2
:103EA00000100010001000100010001000000000B2
:103EB00040000000000000000000028005400540B6
:103EC00003C0004020003FC00440044003800000C5
:103ED000000003800440044006400000000003800E
:103EE000044024403FC000400000038005400540DE
:103EF00003400000000004401FC024402440200074
:103F0000000002E0055005500650042020403FC04C
:103F10000440040003C000400000044027C00040EB
:103F20000000000000100010041027E00000000056
:103F300020403FC00140070004C004402040204012
:103F40003FC000400040000007C0040007C004005C
:103F500003C00000044007C00440040003C0004048
:103F6000000003800440044003800000041007F0B8
:103F7000045004400380000000000380044004500B
:103F800007F00010044007C00240040004000000D5
:103F9000000006400540054004C000000000040089
:103FA0001F800440004000000400078000400440DF
:103FB00007C000400400070004C0018006000400A0
:103FC000060001C0070001C006000000044006C052
:103FD000010006C0044000000410071004E0018046
:103FE000060004000000044005C006400440000034
:103FF0000000000004007BE0402000000000000002
:104000000000FFF000000000000040207BE0040002
:104010000000000040008000400020002000400020
:104020000000000000000000000000000000000090
:104030000000000000001FCC000C00000000000089
:104040000000080030006000080030006000000040
:10405000022003FC1E20022003FC1E200220000080
:1040600000000E1811043FFF10840C7800000000BF
:104070000F0010840F3800C0077818840078000003
:1040800000780F8410C411240E9800E40084000806
:104090000800680070000000000000000000000040
:1040A00000000000000007E0181820044002000093
:1040B000000040022004181807E000000000000083
:1040C0000240024001800FF00180024002400000E7
:1040D0000080008000800FF80080008000800000D9
:1040E0000001000D000E00000000000000000000B4
:1040F0000000008000800080008000800080008040
:104100000000000C000C0000000000000000000097
:104110000000000600180060018006001800200062
:10412000000007F0080810041004080807F0000059
:104130000000080408041FFC000400040000000044
:1041400000000E0C10141024104411840E0C0000FA
:1041500000000C1810041104110412880C700000E7
:10416000000000E00320042408241FFC00240000B9
:1041700000001F98108411041104108810700000B2
:10418000000007F00888110411041888007000006E
:1041900000001C00100010FC13001C0010000000A8
:1041A00000000E3811441084108411440E380000B1
:1041B00000000700088C10441044088807F0000035
:1041C000000000000000030C030C000000000000D1
:1041D00000000000000101060000000000000000D7
:1041E00000000080014002200410080810040000B4
:1041F00002200220022002200220022002200000D1
:104200000000100408080410022001400080000093
:1042100000000E001200100C106C10800F00000047
:1042200003E00C1813E4142417C4082807D0000076
:104230000004003C03C41C40074000E4001C0004D0
:1042400010041FFC1104110411040E8800700000FA
:1042500003E00C1810041004100410081C100000D7
:1042600010041FFC100410041004080807F00000DC
:1042700010041FFC1104110417C4100408180000D6
:1042800010041FFC1104110017C0100008000000EA
:1042900003E00C181004100410441C7800400000C7
:1042A00010041FFC10840080008010841FFC100488
:1042B0000000100410041FFC100410040000000093
:1042C00000030001100110011FFE1000100000008B
:1042D00010041FFC110403801464181C1004000057
:1042E00010041FFC1004000400040004000C000073
:1042F00010041FFC1F0000FC1F001FFC1004000026
:1043000010041FFC0C04030000E010181FFC100038
:1043100007F00808100410041004080807F0000053
:1043200010041FFC10841080108010800F0000000B
:1043300007F0081810241024101C080A07F20000C7
:1043400010041FFC1104110011C011300E0C0004E8
:1043500000000E1C11041084108410441C3800004E
:104360001800100010041FFC1004100018000000BA
:1043700010001FF810040004000410041FF81000BF
:1043800010001E0011E0001C007013801C001000C3
:104390001FC0103C00E01F0000E0103C1FC00000E8
:1043A0001004180C163401C001C01634180C100487
:1043B00010001C00130400FC13041C00100000007B
:1043C0000804101C1064108413041C04101800004E
:1043D0000000000000007FFE40024002400200009A
:1043E000000030000C0003800060001C000300008F
:1043F00000004002400240027FFE0000000000007A
:1044000000000000200040004000400020000000AC
:104410000001000100010001000100010001000194
:1044200000004000400020000000000000000000EC
:1044300000000098012401440144014400FC0004F0
:1044400010001FFC008801040104008800700000B7
:1044500000000070008801040104010400880000CD
:104460000000007000880104010411081FFC000412
:10447000000000F8014401440144014400C8000068
:104480000000010401040FFC1104110411001800C4
:10449000000000D601290129012901C901060000F7
:1044A00010041FFC008401000100010400FC000452
:1044B00000000104190419FC0004000400000000BD
:1044C0000000000300010101190119FE00000000B5
:1044D00010041FFC0024004001B4010C0104000082
:1044E0000000100410041FFC000400040000000081
:1044F000010401FC0104010001FC0104010000FCB5
:10450000010401FC008401000100010400FC00041E
:10451000000000F8010401040104010400F8000097
:10452000010101FF00850104010400880070000002
:1045300000000070008801040104010501FF000172
:104540000104010401FC0084010401000180000059
:10455000000000CC01240124012401240198000062
:1045600000000100010007F8010401040000000040
:10457000010001F8000400040004010801FC00042B
:10458000010001800170000C001001600180010039
:1045900001F0010C003001C00030010C01F00100FD
:1045A00000000104018C00740170018C0104000002
:1045B000010101810171000E0018016001800100FC
:1045C00000000184010C013401440184010C00004D
:1045D000000000000000000001003EFC400240021C
:1045E0000000000000000000FFFF000000000000CD
:1045F0000000400240023EFC0100000000000000FC
:10460000000060008000800040004000200020008A
:10461000000000000000000000000000000000009A
:10462000000000000000000000000000000000008A
:10463000000000000000000000000000000000007A
:104640000000000F80380FFE380F80380000000097
:104650000000000000000000000000000000010059
:10466000000600000C0000380000310000060000C9
:104670000C000038000030000000000000000000C6
:1046800061800067F807F980006180006180006147
:10469000800061800067F807F980006180000000F9
:1046A00000000000000001C0E003E0F00630080454
:1046B00018081FFFFE040E080787F00381E00000C2
:1046C0000000000001F000060C00040408060C7055
:1046D00001F9C0000E00003BE000EC1807080804D8
:1046E0000C180003E00000000001E00007F003F8F0
:1046F00018041C0804170807E1D003C0E00023B029
:10470000003C08002008000010000000000000012C
:1047100000003100003200001C000000000000001A
:104720000000000000000000000000000000000089
:104730000000000000000000000000000000000079
:104740007F0001FFC00780F00C001810000420005B
:10475000020000000000002000021000040C0018FD
:104760000780F001FFC0007F000000000000000093
:104770000000000000000000000000004200006691
:1047800000006600003C0000180003FFC000180095
:10479000003C0000660000660000420000000000CF
:1047A000080000080000080000080000080001FFE1
:1047B000C000080000080000080000080000080011
:1047C00000000000000100003100003200001C0069
:1047D00000000000000000000000000000000000D9
:1047E00000000000000000000800000800000800B1
:1047F0000008000008000008000008000008000091
:104800000800000800000000000000000000000098
:1048100038000038000038000000000000000000F0
:104820000000000000000000000000000000000088
:10483000000600001C000070000180000E0000381F
:104840000000C0000700001C000030000000000055
:10485000000000007F8001FFE00380700600180464
:10486000000804000806001803807001FFE0007FC4
:1048700080000000000000000000010008010008A6
:1048800001000803FFF807FFF80000080000080017
:10489000000800000000000000000001C03802C055
:1048A00058040098040118040218040418061C187F
:1048B00003F81801E0F8000000000000000000010B
:1048C000C0E003C0F0040008040808040808061843
:1048D0000803F41801E7F00001E000000000000008
:1048E000000000000300000D000011000061000046
:1048F000810803010807FFF80FFFF8000108000115
:10490000080000000000000000E007FCD0060808D6
:10491000061008061008061008061838060FF006DC
:1049200007C0000000000000000000003F8001FF01
:10493000E00384300208180410080410080410086A
:10494000071810030FF00007C0000000000000006F
:10495000000003C0000700000600000600F806077C
:10496000F806180006E0000700000600000000003E
:1049700000000001E1E003F7F00634100418080419
:104980001808040C08040C0806161803F3F001C1FB
:10499000E000000000000000F80003FC30030638CF
:1049A0000402080402080402080404100308F001C9
:1049B000FFC0007F000000000000000000000000B9
:1049C00000000000000000007038007038007038EF
:1049D00000000000000000000000000000000000D7
:1049E000000000000000000000000000301A00304D
:1049F0001C0000000000000000000000000000009B
:104A00000000000000000008000014000022000068
:104A100041000080800100400200200400100800D6
:104A2000080000000000000021000021000021001B
:104A300000210000210000210000210000210000D1
:104A4000210000210000000000000000000008001C
:104A50000804001002002001004000808000410096
:104A60000022000014000008000000000000000305
:104A7000C00004C000040000080038080F3808080F
:104A8000380810000C300007E00003C000000000F0
:104A9000000000003F8000FFE0038070020F10065E
:104AA000708804C088048308047F8802C0900301D2
:104AB0002000FE400000080000180001F8003E0839
:104AC00001C20007020007E20000FE00001FC8004C
:104AD00001F800003800000804000807FFF807FF8D
:104AE000F804080804080804080804080806180858
:104AF00003F41801E7F00001E000000000000000EE
:104B00003F8001FFE00380700200180400080400E9
:104B1000080400080400100600200780C000000000
:104B200004000807FFF807FFF80400080400080461
:104B3000000804001802001003807001FFE0007FED
:104B40008000000004000807FFF807FFF8040808C9
:104B5000040808040808040808043E0804000806BD
:104B6000001801006000000004000807FFF807FFBC
:104B7000F8040808040800040800040800043E00C3
:104B80000600000600000180000000000000000098
:104B90003F8001FFE0038070060018040008040253
:104BA000080402080203F00783F00002000002007C
:104BB00004000807FFF807FFF804080800080000D1
:104BC000080000080000080004080807FFF807FFB5
:104BD000F8040008000000000000040008040008B9
:104BE00004000807FFF807FFF804000804000804A1
:104BF00000080000000000000000000000060000A7
:104C00000700000104000104000104000307FFFE87
:104C100007FFFC0400000400000400000400080773
:104C2000FFF807FFF8040C08001800003E0004C756
:104C3000800503C80600F8040038040018000008C6
:104C400004000807FFF807FFF80400080000080048
:104C5000000800000800000800000800001800001C
:104C60006000000004000807FFF807800807FC0048
:104C7000007FC00003F80007C00078000780080725
:104C8000FFF807FFF804000804000807FFF8070012
:104C90000803C00000E000003800001E000007000C
:104CA0000001C00400F007FFF8040000000000004D
:104CB0007F8001FFE00380700600180400080400F4
:104CC0000806001803003001FFE0007F80000000AC
:104CD00004000807FFF807FFF804040804040004B0
:104CE0000400040400040400060C0003F80001F0B2
:104CF00000000000000000007F8001FFE0038070E2
:104D00000600880400880400C806003C03003E0139
:104D1000FFE6007F8400000004000807FFF807FF9B
:104D2000F8040808040800040C00040F00040BC079
:104D30000610F003F03801E0080000080000000150
:104D4000E0F803F030063010041808041808040CCA
:104D500008040C080206180207F00781E0000000B2
:104D600001800006000004000004000004000807A1
:104D7000FFF807FFF8040008040000040000060024
:104D80000001800004000007FFE007FFF0040018A6
:104D900000000800000800000800000800000804E7
:104DA000001007FFE004000004000006000007E018
:104DB0000007FE00041FE00001F80000380001E0D9
:104DC000043E0007C00006000004000004000007C5
:104DD000E00007FFC0041FF80007C007F80007FF46
:104DE00080043FF80007C004F8000700000400003A
:104DF00000000004000806001807C07805F1C8008C
:104E00003E00001F800463E80780F80600180400D5
:104E10000800000004000006000007800007E0080A
:104E2000047C08001FF80007F800180804E00807D1
:104E30000000060000040000000000010008060059
:104E4000380400F80403E8040F08047C0805F0089F
:104E500007C0080700180400600000000000000000
:104E600000000000000000000000003FFFFE2000E6
:104E700002200002200002200002200002000000A8
:104E800000000000000008000007000000C0000053
:104E900038000006000001C000003000000E0000D5
:104EA00001000000000000000000200002200002BD
:104EB0002000022000022000023FFFFE0000000050
:104EC00000000000000000000000000000000000E2
:104ED000000800001000003000002000003000003A
:104EE00010000008000000000000000000000100A9
:104EF00000010000010000010000010000010000AD
:104F0000010000010000010000010000010000019B
:104F10000000000000000000002000002000001041
:104F20000000100000000000000000000000000071
:104F3000000000000000000000F00019F8001B183D
:104F4000002208002608002408002410003FF80072
:104F50001FF800000800001800000004000007FF10
:104F6000F80FFFF0001818001008002008002008B3
:104F7000003018001FF0000FC0000000000000000B
:104F800007C0001FF0001830002008002008002093
:104F900008003C08001C1000006000000000000039
:104FA0000000000007C0001FF000381800200800B3
:104FB000200800200804101007FFF80FFFF0000081
:104FC000100000000000000000000007C0001FF0FB
:104FD00000123000221800220800220800320800C7
:104FE0001E10000E20000000000000002000002025
:104FF0000800200801FFF803FFF806200804200835
:10500000042008072000030000000000000000004A
:10501000000E000E6E001FF30031B10020B1002021
:10502000B1003191001F13002E1E00200E00300031
:1050300000000004000807FFF80FFFF80010080048
:105040002000002000002008003FF8001FF80000AA
:1050500008000000000000000000002008002008F8
:10506000002008063FF8063FF8000008000008008E
:105070000008000000000000000000000000000028
:1050800003000003002001002001002003063FFE72
:10509000063FFC00000000000000000000000004CB
:1050A000000807FFF80FFFF8000188000300002F39
:1050B000C00038F800203800200800000800000078
:1050C00000000000000004000804000804000807B5
:1050D000FFF80FFFF80000080000080000080000BB
:1050E00000000000002008003FF8003FF800100812
:1050F000002000003FF8003FF800100800200000EA
:105100003FF8003FF8000008000000002008003FC2
:10511000F8003FF8001008001000002000002008F0
:10512000003FF8001FF80000080000000000000029
:1051300007C0000FF00018300030080020080020E1
:1051400008003008001830000FF00007C000000011
:10515000000000002001003FFF003FFF0010110091
:105160002009002008002008003038001FF0000F40
:10517000C00000000000000007C0001FF000381849
:10518000002008002008002009001011001FFF0067
:105190003FFF000001000000002008002008002060
:1051A00008003FF8003FF800080800100800200839
:1051B000002000003000003000000000000000006F
:1051C0000000000C78001E1800330800230800219E
:1051D000080021880021980030F0003860000000AD
:1051E00000000000200000200000200000FFF0036D
:1051F000FFF8002008002008002008000030000010
:1052000000000000000000002000003FF0007FF8D8
:10521000000018000008000008002010003FF800FF
:105220007FF00000100000000000000020000030AF
:1052300000003C00003F800023F000007800007078
:10524000002380003C00003000002000002000000F
:105250003C00003FE00023F80000E0002700003E93
:1052600000003FE00021F80001E0003E00002000C7
:10527000000000002008002008003838003E6800C8
:1052800027800003C8002CF80038380020180020C0
:1052900008000000000000002000003003003C0176
:1052A000003F830023EC000070002380003C0000DE
:1052B0002000002000000000000000000000003876
:1052C000080020380020F80023E8002F88003E085E
:1052D00000380800201800007000000000000000E6
:1052E00000000000000000000000000008000014A2
:1052F000001FF7FC30000620000200000000000044
:10530000000000000000000000000000000000009D
:105310000000FFFFFF000000000000000000000090
:105320000000000000000000000020000230000625
:105330001FF7FC001400000800000000000000003F
:1053400000000000000000000000001800006000E5
:105350000040000040000020000010000008000095
:105360000400000400000C000010000002400000D7
:10537000000000A00000000005400000000000C880
:10538000000000000C4000000000409C00000000F5
:10539000194000000020BCBE0000000034400000A6
:1053A000BFC91B8E00000004B5400000504BCFD099
:1053B0006607E2CF010000006C4100003E8251AA66
:1053C000DFEEA73401000000D9420000DCB5A0E206
:1053D0003A301F97FFFFFFFFB4450000FD25A0C82E
:1053E000E9A3C14FFFFFFFFFFF3F00000000008067
:1053F00000000000FF3F00000000008000000000EF
:1054000041542B415049503D3139322E3136382EDE
:10541000312E31322C3235352E3235352E3235356E
:105420002E302C3139322E3136382E312E31322C6D
:105430003139322E3136382E312E310D0A0000002E
:1054400041542B534F434B3D5443502C434C4945FF
:105450004E542C3132332E35372E3235352E3134F1
:105460002C333030332C383838370D0A0000000028
:1054700041542B534F434B3D3F0D0A0041542B5693
:1054800045523D3F0D0A000041542B524F4C453DC3
:105490005354410D0A00000041542B524553544FC0
:1054A00052450D0A0000000041542B455849540D47
:1054B0000A00000041542B5253540D0A0000000012
:1054C00041542B5354413D5869616F4D695F72657A
:1054D0006E6176696761746F722C322C74796A6CB4
:1054E000776C747A630D0A002B2B2B005265737452
:1054F0006F7265204F4B00005354412075706461FA
:105500007465204F4B000000536F636B657420750A
:105510007064617465204F4B000000005365742077
:10552000535441206D6F646500000000456E746542
:10553000726564204154206D6F646500457869741C
:105540006564204154206D6F646500004D6F647583
:105550006C65205265626F6F7400000098550008FA
:105560000000002074000000C40100080C56000870
:1055700074000020C40C0000E00100081C000000C2
:1055800043000000F8FFFFFF0C0000000E000000C9
:105590000F0000002E00000001000000E854000889
:1055A000A854000888540008C0540008405400085B
:1055B000B4540008005400089854000870540008BF
:1055C0007C5400082C5500083C5500081C55000868
:1055D000F8540008085500084C550008EC54000821
:1055E00000000000000000000000000000000000BB
:1055F00000000000000000000000000000000000AB
:0C5600000102030401020304060708096C
:040000050800018965
:00000001FF
